:040000007FEF00F09E
:10000800FACF06F0FBCF07F0E1CF08F0E2CF09F016
:10001800D9CF0AF0DACF0BF0F3CF0CF0F4CF0DF014
:100028003AC00EF03BC00FF03CC010F03DC011F0DC
:100038003EC012F03FC013F040C014F041C015F0AC
:100048001DEE18F0F2BC9DA005D09EA003D0EDECEB
:100058006FF030D0F2BC9DAA05D09EAA03D016EC52
:1000680057F028D0F2BC9DA805D09EA803D0CDECAF
:1000780069F020D0F0B6F0A003D0FDEC70F01AD0F3
:10008800F0B8F0A203D0F9EC70F014D0F2B6F2A0F8
:1000980003D0F5EC6FF00ED0F2BC9DA605D09EA65D
:1000A80003D0F2EC22F006D0F2BCA0A603D0A1B691
:1000B80071EC71F015C041F014C040F013C03FF06E
:1000C80012C03EF011C03DF010C03CF00FC03BF034
:1000D8000EC03AF00DC0F4FF0CC0F3FF0BC0DAFFFE
:1000E8000AC0D9FF09C0E2FF08C0E1FF07C0FBFF53
:1000F80006C0FAFF11001CEE08F015EF3AF02CECE0
:1001080071F0020109B187EF05F0D6C0D9FFD7C059
:10011800DAFFDF500001E06FE039E832070BE8064C
:1001280001E0B9D00201235101E0B5D00001D805A2
:10013800E76F1AD0D851D625D96F000ED721DA6FBC
:10014800E751D95D7B6FDA51D8A0DA057C6F480E8C
:100158007D6F020E7E6F64EC6AF0100E0001E76599
:1001680002D0E75F01D0E76BE751E4E1480EC46FC6
:10017800020EC56FD6C0C6F0D7C0C7F0D851FC0F65
:10018800C86FAFEC5EF0C4C0EAF0C5C0EBF0C6C003
:10019800ECF0C7C0EDF0D6C020F0D7C021F0D8C031
:1001A80022F079EC64F020C0E3F021C0E4F022C032
:1001B800E5F023C0E6F00001EA51E31909E1EB514B
:1001C800E41906E1EC51E51903E1ED51E61911E0F6
:1001D800020108510F0B050A02E1DDEF6BF008512F
:1001E8000F0B030AD8A41200E851D8B41200DDEFAF
:1001F8006BF0020108510F0B030A03E1DA511AEC04
:100208006EF0D6C0EEF0D7C0EFF0000120EE07F098
:10021800EE51D926EF51DA22DECF24F2DECF25F2D5
:10022800DECF26F2DECF27F220EE0CF0EE51D926F3
:10023800EF51DA22DF500F0B8BEC61F0000120EE5A
:100248000BF0EE51D926EF51DA22DF38070B166E84
:1002580020EE0BF0EE51D926EF51DA22DF500F0BCA
:1002680032EC6DF0EEC016F0EFC017F0D8516AEC22
:1002780071F0EEC027F0EFC028F0A0EC53F088EC46
:100288003AF002010C6B0D6B0E6B0F6B106B116B60
:10029800126B136B12000001E039E832070B030AF6
:1002A80007E0E039E832070B050A02E084EF05F0C1
:1002B80002019E6BD6C0F1F0D7C0F2F0020E1819F9
:1002C80001E084D1000120EE01F0F151D926F2516C
:1002D800DA2202016851DE1809E16951DE1806E1E7
:1002E8006A51DE1803E16B51DE18D8A46FD10AA554
:1002F8006DD1F1C016F0F2C017F0E7EC57F0000925
:1003080007E102010851F00B0909086F4BEF59F09A
:10031800000120EE06F0F151D926F251DA22DECFA3
:10032800D9F0DDCFDAF0D9C020F0DAC021F0226AA6
:10033800236AD851FC0F246E490E256E010E266ED5
:1003480084EC45F0F90E166E0A0E176ECF0E186E75
:10035800030E196E1B6A100E1A6E2FEC5EF0090E52
:10036800166E0B0E176ED6C018F0D7C019F0FC0E1B
:100378000001D8251A6E1B6AFF0E1B222FEC5EF0B7
:100388006C0E0001B66F020EB76FCF0EB86F030E7A
:10039800B96FF90EBA6F0A0EBB6FD8510C0FBC6F4C
:1003A800FEEC15F0EA0E166E176ACF0E186E030EE5
:1003B800196E1B6A040E1A6E2FEC5EF0D6C020F080
:1003C800D7C021F0D8C022F079EC64F020C0E3F067
:1003D80021C0E4F022C0E5F023C0E6F00001E351BB
:1003E800EA198FE1E451EB198CE1E551EC1989E147
:1003F800E651ED1986E101D084D720EE06F0F151DF
:10040800D926F251DA2202011451DE5C1551DE5868
:100418003CE3000120EE06F0F151D926F251DA2230
:10042800DECFD9F0DDCFDAF0020114510001D95F37
:10043800020115510001DA5BD9510201965D0001F4
:10044800DA510201975915E22A502B1001E159D7C8
:1004580000017D6B7E6B7F6B060E806F01D851D7D4
:100468000500FA6E2A50FD6E2B50FE6EFF6AFA5098
:100478001200000120EE06F0F151D926F251DA22DD
:10048800DECF14F2DDCF15F216D0000120EE06F013
:10049800F151D926F251DA22DE50DE10D5E10201FF
:1004A8001429D2E11529D8A4CFD7146B156B164B94
:1004B800172B01D0C9D70201142908E1152906E133
:1004C800162904E11729D8A401D0BED708510F0B6B
:1004D800080A08E1DB511AEC6EF00201DC511AEC53
:1004E8006EF007D008510F0B030A03E1DC511AEC38
:1004F8006EF0080E0001D627000ED723D851D96F09
:10050800DA6B20EE05F0F151D926F251DA22DF50EC
:100518000F0BDB6FDC6B0C0EDB27000EDC23D951D5
:10052800DB1903E1DA51DC1932E0D6C0D9FFD7C0B4
:10053800DAFFDF50DE6FD64BD72BD851F40FF06FB0
:10054800190EE26FD6C08FF0D7C090F0F005916F0A
:10055800010E926F14C293F015C294F016C295F072
:1005680017C296F07C0E976F020E986FE2C099F052
:10057800F90E9A6F0A0E9B6F010E9C6FA7EC2CF078
:10058800FF0ED625E86FFF0ED721E96F03D0F06B79
:10059800E86BE96B02010983F00E08172A502B104B
:1005A80001E1AFD6E8C07DF0E9C07EF0F0C07FF091
:1005B800010E0001806F01D8A4D60500FA6E2A50FA
:1005C800FD6E2B50FE6EFF6AFA501200000120EEFD
:1005D80001F0F151D926F251DA2202012451DE1834
:1005E80009E12551DE1806E12651DE1803E12751FD
:1005F800DE1809E0000E82EC58F0020E020118190C
:10060800D8A412007ED6000120EE06F0F151D926BA
:10061800F251DA22DECFD9F0DDCFDAF0D9C020F0FE
:10062800DAC021F0226A236AD851FC0F246E490EE1
:10063800256E266A010E84EC45F0F90E166E0A0E38
:10064800176ECF0E186E030E196E1B6A100E1A6EF7
:100658002FEC5EF0090E166E0B0E176ED6C018F052
:10066800D7C019F0FC0E0001D8251A6E1B6AFF0EC0
:100678001B222FEC5EF0280E0001B66F020EB76F3A
:10068800CF0EB86F030EB96FF90EBA6F0A0EBB6FB3
:10069800D8510C0FBC6FFEEC15F0EA0E166E176AF7
:1006A800CF0E186E030E196E1B6A040E1A6E2FEC0D
:1006B8005EF0D6C020F0D7C021F0D8C022F079EC87
:1006C80064F020C0E3F021C0E4F022C0E5F023C0CC
:1006D800E6F00001E351EA1909E1E451EB1906E1FA
:1006E800E551EC1903E1E651ED1904E0000E82EC46
:1006F80058F083D720EE06F0F151D926F251DA22CC
:1007080002011051DE5C1151DE5844E3000120EE75
:1007180006F0F151D926F251DA22DECFD9F0DDCF39
:10072800DAF0020110510001D95F020111510001F4
:10073800DA5BD9510201945D0001DA510201955941
:100748001DE20691F00E08172A502B1012E0069BA6
:10075800000E00017D6B7E6B7F6B806B01D809D02A
:100768000500FA6E2A50FD6E2B50FE6EFF6AFA5095
:100778001200020109933DD0020E41D7000120EE7C
:1007880006F0F151D926F251DA22DECF10F2DDCF90
:1007980011F223D0000120EE06F0F151D926F251D2
:1007A800DA22DE50DE1015E10201102912E11129CA
:1007B800D8A40FD0000120EE06F0F151D926F2514D
:1007C800DA22DECF10F2DDCF11F20201124B132B29
:1007D80004D0000E82EC58F010D7356A366A020150
:1007E800102909E1112907E1122905E11329D8A4E3
:1007F80002D00A83C1D708510F0B030A03E1DC5169
:100808001AEC6EF0010E0201CF6FF1C016F0F2C0C3
:1008180017F060EC62F0000120EE05F0F151D926E6
:10082800F251DA22DF500F0B2BE020EE05F0F151E8
:10083800D926F251DA22DF500F0BF125D96F000EBD
:10084800F221DA6F080ED925D96E000EDA21DA6E98
:10085800DF501AE0080EF1256E6F000EF2216F6F5F
:1008680020EE05F0F151D926F251DA22DF500F0BB4
:10087800706FFAEC21F06EC0D6F06FC0D7F004D0DC
:10088800080ED627000ED723D851D96FDA6B20EE81
:1008980005F0F151D926F251DA22DF500F0BDB6F48
:1008A800DC6B0C0EDB27000EDC23D951DB1904E1CD
:1008B800DA51DC1901E193D0D6C0D9FFD7C0DAFFED
:1008C800DF50DE6FD64BD72B20EE05F0F151D9263D
:1008D800F251DA22DF500F0BD96FD951D85DF40FDE
:1008E800F06F20EE05F0F151D926F251DA22DF50EF
:1008F8000F0B190FE26FDE5124E0D6C08FF0D7C07E
:1009080090F0F005916F010E926F10C293F011C232
:1009180094F012C295F013C296F0380E976F020E3B
:10092800986FE2C099F0F90E9A6F0A0E9B6F9C6B54
:10093800A7EC2CF0FF0ED625E86FFF0ED721E96F44
:1009480051D0D851D96FDA6B20EE05F0F151D92684
:10095800F251DA22DF500F0BDB6FDC6B0D0EDB2759
:10096800000EDC23D951DB5DDC51800ADD6FDA51E2
:10097800800ADD5932E2D6C08FF0D7C090F0F0057A
:10098800916F010E926F10C293F011C294F012C2CF
:1009980095F013C296F0280E976F020E986FE2C07A
:1009A80099F0F90E9A6F0A0E9B6F9C6BA7EC2CF0CE
:1009B80020EE05F0F151D926F251DA22DF500F0B63
:1009C8000CE1D6C06EF0D7C06FF0F005706FFAEC8E
:1009D80021F06EC0D6F06FC0D7F0F06B01D0F06B8D
:1009E800E86BE96B010E0201CF6FC76BC86BE56B53
:1009F8000699098306A14CD0000120EE05F0F151BB
:100A0800D926F251DA22DFAA40D002010691010E5E
:100A18000001DF6FF00E020108172A502B1014E0B6
:100A2800069BE8C07DF0E9C07EF0F0C07FF0DFC033
:100A380080F001D809D00500FA6E2A50FD6E2B50BF
:100A4800FE6EFF6AFA5012000201099308BB06BB4A
:100A5800D4D506B302D006A7D0D5010E0001626F27
:100A6800E10E636F0201E451F8EC3AF000090AE183
:100A7800000ED06FD16FD26FD36F92EC41F00201AC
:100A88000697BBD56BEC71F0B8D5E0EC56F0B5D550
:100A9800010E0001DF6FF00E020108172A502B101B
:100AA80014E0069BE8C07DF0E9C07EF0F0C07FF05E
:100AB800DFC080F001D809D00500FA6E2A50FD6E1B
:100AC8002B50FE6EFF6AFA501200020108BB06BBEB
:100AD80094D506B302D006A790D5010E0001626F27
:100AE800E10E636F0201E451F8EC3AF00009CAE143
:100AF800000ED06FD16FD26FD36F92EC41F0BFD799
:100B0800000E82EF58F02A502B10D8B4120029ECAE
:100B180071F00001D96FD9B711D0D6C07DF0D7C018
:100B28007EF0D8C07FF0030E806F0500FA6E2A5061
:100B3800FD6E2B50FE6EFF6AFA501200D6C07DF093
:100B4800D7C07EF0D8C07FF0020E806F0500FA6E25
:100B58002A50FD6E2B50FE6EFF6AFA5012000001FB
:100B6800F36BF46BEC6BED6B010E176E0B0E166EE0
:100B7800186844EC66F0010E176E0C0E166E1868B5
:100B880044EC66F09BC1EFF09CC1F0F00001F16B02
:100B9800F26BF051EC27000EED23176A166AF0C0CD
:100BA80018F044EC66F00001F34BF42BEF51EC27FE
:100BB800000EED23F3C016F0F4C017F0EFC018F0E4
:100BC80044EC66F00001F34BF42BEE0E166EEF0EBC
:100BD8000BEC6BF0F56BF551EF0FD96EDA6ADF505D
:100BE800EC27000EED23F3C016F0F4C017F0F55112
:100BF800EF0FD96EDA6ADF50186E44EC66F0000128
:100C0800F34BF42BF52B030EF565E5D7EE51EC27E6
:100C1800000EED23F3C016F0F4C017F0EEC018F084
:100C280044EC66F00001F34BF42B20EC71F000016A
:100C3800EE6FEE51EC27000EED23F3C016F0F4C072
:100C480017F0EEC018F044EC66F00001F34BF42BFB
:100C58006AEC6FF016C0EFF017C0F0F018C0F1F0B2
:100C680019C0F2F00001F56BF551EF0FD96EDA6A91
:100C7800DF50EC27000EED23F3C016F0F4C017F098
:100C8800F551EF0FD96EDA6ADF50186E44EC66F052
:100C98000001F34BF42BF52B030EF565E5D785EC36
:100CA8006FF016C0EFF017C0F0F018C0F1F019C0DF
:100CB800F2F00001F56BF551EF0FD96EDA6ADF50EB
:100CC800EC27000EED23F3C016F0F4C017F0F55131
:100CD800EF0FD96EDA6ADF50186E44EC66F0000147
:100CE800F34BF42BF52B030EF565E5D7DB0EE2ECA1
:100CF8006DF00001F56BF551DB0FD96EDA6ADF5044
:100D0800EC27000EED23F3C016F0F4C017F0F551F0
:100D1800DB0FD96EDA6ADF50186E44EC66F000011A
:100D2800F34BF42BF52B070EF565E5D7DB0EFEEC40
:100D38006DF00001F56BF551DB0FD96EDA6ADF5003
:100D4800EC27000EED23F3C016F0F4C017F0F551B0
:100D5800DB0FD96EDA6ADF50186E44EC66F00001DA
:100D6800F34BF42BF52B070EF565E5D7DB0EC6EC38
:100D78006DF00001F56BF551DB0FD96EDA6ADF50C3
:100D8800EC27000EED23F3C016F0F4C017F0F55170
:100D9800DB0FD96EDA6ADF50186E44EC66F000019A
:100DA800F34BF42BF52B0F0EF565E5D7DB0EAAEC0C
:100DB8006DF00001F56BF551DB0FD96EDA6ADF5083
:100DC800EC27000EED23F3C016F0F4C017F0F55130
:100DD800DB0FD96EDA6ADF50186E44EC66F000015A
:100DE800F34BF42BF52B0F0EF565E5D7DB0EB8ECBE
:100DF8006DF00001F56BF551DB0FD96EDA6ADF5043
:100E0800EC27000EED23F3C016F0F4C017F0F551EF
:100E1800DB0FD96EDA6ADF50186E44EC66F0000119
:100E2800F34BF42BF52B0F0EF565E5D78EEC6FF031
:100E380016C0EFF017C0F0F018C0F1F019C0F2F0CA
:100E48000001F56BF551EF0FD96EDA6ADF50EC2728
:100E5800000EED23F3C016F0F4C017F0F551EF0FB4
:100E6800D96EDA6ADF50186E44EC66F00001F34B75
:100E7800F42BF52B030EF565E5D7DB0E98EC6CF03B
:100E88000001F56BF551DB0FD96EDA6ADF50EC27FC
:100E9800000EED23F3C016F0F4C017F0F551DB0F88
:100EA800D96EDA6ADF50186E44EC66F00001F34B35
:100EB800F42BF52B0F0EF565E5D7DB0E88EC6CF0FF
:100EC8000001F56BF551DB0FD96EDA6ADF50EC27BC
:100ED800000EED23F3C016F0F4C017F0F551DB0F48
:100EE800D96EDA6ADF50186E44EC66F00001F34BF5
:100EF800F42BF52B0F0EF565E5D77CEC6FF016C0DB
:100F0800EFF017C0F0F018C0F1F019C0F2F00001CE
:100F1800F56BF551EF0FD96EDA6ADF50EC27000E4A
:100F2800ED23F3C016F0F4C017F0F551EF0FD96EAA
:100F3800DA6ADF50186E44EC66F00001F34BF42BCC
:100F4800F52B030EF565E5D7C5EC70F00001EE6FE3
:100F5800EE51EC27000EED23F3C016F0F4C017F0A5
:100F6800EEC018F044EC66F00001F34BF42BEB6B89
:100F7800EB516DEC6BF00001EE6FEE51EC27000EBB
:100F8800ED23F3C016F0F4C017F0EEC018F044ECEF
:100F980066F00001F34BF42BEB515AEC6BF00001B7
:100FA800EE6FEE51EC27000EED23F3C016F0F4C0FF
:100FB80017F0EEC018F044EC66F00001F34BF42B88
:100FC800EB2B470EEB65D4D71DEC71F00001EE6FEB
:100FD800EE51EC27000EED23F3C016F0F4C017F025
:100FE800EEC018F044EC66F00001F34BF42BCDECA6
:100FF80070F00001EE6FEE51EC27000EED23F3C008
:1010080016F0F4C017F0EEC018F044EC66F00001DA
:10101800F34BF42BEC2905E1ED29D8A402D0EC6BB5
:10102800ED6BF3C016F0F4C017F0ECC018F044EC08
:1010380066F00001F34BF42BF3C016F0F4C017F080
:10104800EDC018F044EC66F00001F34BF42B20EEF1
:1010580006F0D951D926DA51DA2245C3DEFF46C354
:10106800DEFFDD6A12000001756B766B7A6B7B6BB5
:10107800176A166AADEC6EF00001796F7A4B7B2B1C
:1010880079517527000E762379C072F0736B72510F
:10109800736F726B7AC016F07BC017F0ADEC6EF010
:1010A8000001796F7A4B7B2B79517527000E7623D7
:1010B80079517227000E7323725147EC70F072C099
:1010C80077F073C078F000017C6B7C517D0FD96E8E
:1010D800DA6A7AC016F07BC017F0ADEC6EF0DF6EFE
:1010E80000017A4B7B2B7C517D0FD96EDA6ADF5079
:1010F8007527000E76237C2B030E7C65E6D77AC015
:1011080016F07BC017F0ADEC6EF00001796F7A4BEA
:101118007B2B79517527000E76237DC024F07EC085
:1011280025F07FC026F080C027F079C028F083EC36
:1011380062F07AC016F07BC017F0ADEC6EF00001DB
:10114800796F7A4B7B2B79517527000E762379516D
:10115800EBEC65F000017C6B7C517D0FD96EDA6A8F
:101168007AC016F07BC017F0ADEC6EF0DF6E0001B0
:101178007A4B7B2B7C517D0FD96EDA6ADF5075274D
:10118800000E76237C2B030E7C65E6D77DC016F017
:101198007EC017F07FC018F080C019F0A9EC6FF07E
:1011A8007C6B7C517D0FD96EDA6A7AC016F07BC0F1
:1011B80017F0ADEC6EF0DF6E00017A4B7B2B7C51A3
:1011C8007D0FD96EDA6ADF507527000E76237C2BE7
:1011D800030E7C65E6D77DC016F07EC017F07FC091
:1011E80018F080C019F0B2EC6FF07C6B7C51620F84
:1011F800D96EDA6A7AC016F07BC017F0ADEC6EF0E3
:10120800DF6E00017A4B7B2B7C51620FD96EDA6A54
:10121800DF507527000E76237C2B070E7C65E6D7FA
:1012280077A105D0620E206E216A8EEC6AF000016B
:101238007C6B7C51620FD96EDA6A7AC016F07BC07B
:1012480017F0ADEC6EF0DF6E00017A4B7B2B7C5112
:10125800620FD96EDA6ADF507527000E76237C2B71
:10126800070E7C65E6D777A305D0620E206E216A4B
:10127800E2EC6AF000017C6B7C51620FD96EDA6A8D
:101288007AC016F07BC017F0ADEC6EF0DF6E00018F
:101298007A4B7B2B7C51620FD96EDA6ADF50752747
:1012A800000E76237C2B0F0E7C65E6D777A505D03C
:1012B800620E206E216ACDEC6AF000017C6B7C51D5
:1012C800620FD96EDA6A7AC016F07BC017F0ADECFF
:1012D8006EF0DF6E00017A4B7B2B7C51620FD96E6A
:1012E800DA6ADF507527000E76237C2B0F0E7C659B
:1012F800E6D777A905D0620E206E216A79EC6AF0EC
:1013080000017C6B7C51620FD96EDA6A7AC016F0E4
:101318007BC017F0ADEC6EF0DF6E00017A4B7B2BD3
:101328007C51620FD96EDA6ADF507527000E76237A
:101338007C2B0F0E7C65E6D777AB05D0620E206E4E
:10134800216AB8EC6AF000017D6B7E6B7F6B806B65
:101358007C6B7C517D0FD96EDA6A7AC016F07BC03F
:1013680017F0ADEC6EF0DF6E00017A4B7B2B7C51F1
:101378007D0FD96EDA6ADF507527000E76237C2B35
:10138800030E7C65E6D777A70AD07DC016F07EC02D
:1013980017F07FC018F080C019F089EC6EF00001DA
:1013A8007C6B7C51620FD96EDA6A7AC016F07BC00A
:1013B80017F0ADEC6EF0DF6E00017A4B7B2B7C51A1
:1013C800620FD96EDA6ADF507527000E76237C2B00
:1013D8000F0E7C65E6D777AF05D0620E206E216AC6
:1013E800B8EC6CF000017C6B7C51620FD96EDA6A44
:1013F8007AC016F07BC017F0ADEC6EF0DF6E00011E
:101408007A4B7B2B7C51620FD96EDA6ADF507527D5
:10141800000E76237C2B0F0E7C65E6D778A105D0CD
:10142800620E206E216AA8EC6CF000017D6B7E6B69
:101438007F6B806B7C6B7C517D0FD96EDA6A7AC0CA
:1014480016F07BC017F0ADEC6EF0DF6E00017A4B42
:101458007B2B7C517D0FD96EDA6ADF507527000E21
:1014680076237C2B030E7C65E6D777AD0AD07DC04A
:1014780016F07EC017F07FC018F080C019F0DBECC2
:101488006EF07AC016F07BC017F0ADEC6EF000017C
:10149800796F7A4B7B2B79517527000E762379511A
:1014A80093EC6BF00001746B470E746501D02CD07F
:1014B8007AC016F07BC017F0ADEC6EF00001796FC2
:1014C8007A4B7B2B79517527000E76237951010EC3
:1014D800D8B4000E1A6E745167EC6CF07AC016F02E
:1014E8007BC017F0ADEC6EF00001796F7A4B7B2B67
:1014F80079517527000E762379C01DF07451A6EC3A
:101508006BF00001742BD0D77AC016F07BC017F0AF
:10151800ADEC6EF00001796F7A4B7B2B7951752712
:10152800000E76237951EFEC6BF07AC016F07BC091
:1015380017F0ADEC6EF00001796F7A4B7B2B795187
:101548007527000E76237951A1EC6EF000017529FC
:1015580005E17629D8A402D0756B766B75C060F06A
:1015680076C061F01200C4C11BF0000E1C6E33EC93
:101578003FF0ACC123F0ADC124F0AEC125F0AFC13E
:1015880026F068EC3BF00101C751F3EC41F0010192
:10159800C40501E0A7D1BAC118F0390E28EC6EF0E5
:1015A800CEC168F0010E000168170101D890CD3551
:1015B8000001696F0101C639F00B0001691168115A
:1015C800186E1D0E28EC6EF028C068F0030E00019E
:1015D8006817C8C169F0010E6917D8906937D890A3
:1015E80069370101C539F00B000169116811186EDE
:1015F8001E0E28EC6EF00101CA51CB115DE0CAC184
:101608006BF0CBC16CF000016D6B6E6B3FD06BC0A3
:1016180016F06CC017F06DC018F06EC019F07D0E92
:101628001A6E1B6A1C6A1D6A5CEC52F020D06BC0F3
:1016380016F06CC017F06DC018F06EC019F0FA0EF5
:101648001A6E1B6A1C6A1D6A5CEC52F010D06BC0E3
:1016580016F06CC017F06DC018F06EC019F0F40EDB
:101668001A6E010E1B6E1C6A1D6A5CEC52F016C0E5
:101678006BF017C06CF018C06DF019C06EF00FD089
:1016880000016B6B6C6B6D6B6E6B09D00101C65101
:10169800070ABDE00F0ACBE0010AD9E0F1D7010142
:1016A800C5290001686F05D0D8906E336D336C334F
:1016B8006B33682FF9D705D000016B6B6C6B6D6BC2
:1016C8006E6B6BC018F0240E28EC6EF027C018F073
:1016D8001F0E28EC6EF0260E50EC6DF000016F6FB7
:1016E8000C0E0101C51906E1070EC61909E0080E1E
:1016F800C61906E00B0EC51906E1070EC61903E167
:1017080000016F8702D000016F976F856FC018F0D6
:10171800260E28EC6EF0310E50EC6DF000016F6F64
:10172800F80E6F17030E6F136FC018F0310E28EC08
:101738006EF00A0E186E370E28EC6EF0120E0101CC
:10174800DD1929E1070EC61903E0080EC61914E1D0
:10175800310E50EC6DF000016F6F6F9F6FC018F085
:10176800310E28EC6EF0400E186E2F0E28EC6EF03D
:10177800186A300E28EC6EF0090E0101C6190BE14B
:10178800310E50EC6DF000016F6F6F8F6FC018F065
:10179800310E28EC6EF0330E50EC6DF000016F6FD7
:1017A8006F9D6F81CCC168F0010E6817060E696FD6
:1017B800D8906837692FFCD768516F136FC018F03D
:1017C800330E28EC6EF0CCC168F0010E00016817EA
:1017D800D8906837D8906835FF0A1D0B6F6F6FC0B7
:1017E80018F03B0E28EC6EF00101B951186E200E6E
:1017F80028EC6EF0B8C118F0210E28EC6EF0186ACB
:101808000D0E28EC6EF0186A0E0E28EC6EF0186AB1
:101818000F0E28EC6EF0120E0101DD195FE1090EC2
:10182800C6191CE1800EAC5D130EAD59610EAE59A0
:10183800330EAF5913E3AC05F70EAD59CB0EAE59C5
:101848003C0EAF590BE2020E186E360E28EC6EF005
:10185800640E186E3A0E28EC6EF025D0090EC619E3
:101868001DE1800EAC5D1A0EAD59700EAE59180E02
:10187800AF5914E3410EAC5DDD0EAD594A0EAE59B9
:101888001F0EAF590BE2020E186E360E28EC6EF0E2
:101898007F0E186E3A0E28EC6EF005D0030E186E07
:1018A800360E28EC6EF0090E0101C6190DE1CC05C3
:1018B8000BE1650E186E3A0E28EC6EF0190E186ED4
:1018C8003B0E28EC6EF00AD0650E186E3A0E28EC26
:1018D8006EF01D0E186E3B0E28EC6EF01868120E96
:1018E80028EF6EF0B0C123F0B1C124F0B2C125F0E9
:1018F800B3C126F0B5EC58F0B4C123F0B5C124F05B
:10190800B6C125F0B7C126F07CEC59F00101B951F8
:10191800186E250E28EC6EF0B8C118F0260E28ECCB
:101928006EF00A0E50EC6DF000016F6F9F0E6F178E
:101938000101DF39E846E00B00016F136FC018F0B2
:101948000A0E28EC6EF0C80E00016F6F0101C85135
:1019580002E000016F896FC018F0300E28EC6EF0BD
:1019680000016A6B0ED0BB0E6A25D96EDA6A010EC9
:10197800DA22DF50186E6A51280F28EC6EF0000149
:101988006A2B0101C35100016A5DEDE30101C351F6
:1019980007E0C3051009186E270E28EC6EF004D076
:1019A800186A270E28EC6EF018683E0E28EC6EF0C8
:1019B80018683F0E28EF6EF0DAD12368246825688E
:1019C8002668E3D106A59AD0D951AFEC65F0195035
:1019D80007E11F0E165CAC0E1758DF0E185847E3C8
:1019E8000201D951AFEC65F00D0E05D0D89019322F
:1019F800183217321632E82EF9D77D0E0001160379
:101A0800F3CF60F0F4CF61F0626B636B1703F350B0
:101A18006127F4506223000E63231603F3506127F5
:101A2800F4506223000E63237D0E1803F3506227DF
:101A3800F4506323000E1703F3506227F450632316
:101A4800000E1603F3506227F45063237D0E19032A
:101A5800F3506327000E1803F3506327000E170393
:101A6800F3506327000E1603F3506327A9D0020131
:101A7800D951AFEC65F07D0E00011603F3CF60F08D
:101A8800F4CF61F0626B636B1703F3506127F45076
:101A98006223000E63231603F3506127F450622378
:101AA800000E63237D0E1803F3506227F45063235E
:101AB800000E1703F3506227F4506323000E160339
:101AC800F3506227F45063237D0E1903F350632704
:101AD800000E1803F3506327000E1703F350632713
:101AE800000E1603F35063270D0E05D0D89063330C
:101AF800623361336033E82EF9D762D008A945D143
:101B0800DB51AFEC65F0195007E11F0E165CAC0E07
:101B18001758DF0E18580EE30201DB51AFEC65F0E1
:101B28000D0E05D0D8901932183217321632E82E19
:101B3800F9D763D70201DB51AFEC65F07D0E0001E8
:101B48001603F3CF60F0F4CF61F0626B636B170399
:101B5800F3506127F4506223000E63231603F350F9
:101B68006127F4506223000E63237D0E1803F3509F
:101B78006227F4506323000E1703F3506227F450D2
:101B88006323000E1603F3506227F45063237D0E7F
:101B98001903F3506327000E1803F3506327000E50
:101BA8001703F3506327000E1603F35063270D0E37
:101BB80005D0D8906333623361336033E82EF9D7A8
:101BC80060C023F061C024F062C025F063C026F035
:101BD800DCD006A504D0DA51AFEC65F005D008A931
:101BE8000BD0DC51AFEC65F016C023F017C024F021
:101BF80018C025F019C026F0265007E11F0E235CF7
:101C0800AC0E2458DF0E25584BE323C060F024C0E7
:101C180061F025C062F026C063F00D0E06D0000109
:101C2800D8906333623361336033E82EF8D77D0E82
:101C38006003F3CF64F0F4CF65F0666B676B610304
:101C4800F3506527F4506623000E67236003F350B2
:101C58006527F4506623000E67237D0E6203F35058
:101C68006627F4506723000E6103F3506627F4508B
:101C78006723000E6003F3506627F45067237D0E38
:101C88006303F3506727000E6203F3506727000EC3
:101C98006103F3506727000E6003F35067274AD0AB
:101CA80023C060F024C061F025C062F026C063F054
:101CB8007D0E00016003F3CF64F0F4CF65F0666B2E
:101CC800676B6103F3506527F4506623000E6723A2
:101CD8006003F3506527F4506623000E67237D0EDA
:101CE8006203F3506627F4506723000E6103F35034
:101CF8006627F4506723000E6003F3506627F450FC
:101D080067237D0E6303F3506727000E6203F350C9
:101D18006727000E6103F3506727000E6003F35036
:101D280067270D0E05D0D890673366336533643363
:101D3800E82EF9D764C023F065C024F066C025F00A
:101D480067C026F022D0DF51AFEC65F016C023F053
:101D580017C024F018C025F019C026F0265001E15C
:101D68004DD753D7236A246A256A266A0ED0020102
:101D780008510F0B01E121D6020A01E123D6060A18
:101D880001E127D7020ADFE0EDD7265025102410FD
:101D980003E1C80E235C09E3CE0E2326FF0E24229E
:101DA800252226220201098106D0236A246A256A8F
:101DB800266A0201099123C01FF024C020F025C023
:101DC80021F026C022F01200070E696F6A6B22C04C
:101DD800D9FF23C0DAFFDF500F0B636F22C0D9FF92
:101DE80023C0DAFFDF50246E24380F0B646F224AB9
:101DF800232A22C0D9FF23C0DAFFDECF67F0DDCF68
:101E080068F067C065F068C066F0020E2226000E12
:101E1800232222C06BF023C06CF0224A232A02013D
:101E280008AD9FD167C016F068C017F06BC0D9FF26
:101E38006CC0DAFF0001DF38070B65EC6EF00009B3
:101E480001E009D102019E51020DA00EF324D96EC2
:101E5800020EF420DA6EDF80A4D06BC0D9FF6CC00C
:101E6800DAFFDF38070B246E2438F00B626F6251FB
:101E7800100F606F62C06DF042D06D51020D010EFF
:101E8800F324D96E050EF420DA6EDF500F0B246EA2
:101E980000016951245C11E265B103D065516611F6
:101EA8000CE16D51020D010EF324D96E050EF420DC
:101EB800DA6EDF500F0B0001696F6D51020D010ED4
:101EC800F324D96E050EF420DA6EDF380F0B00010B
:101ED8006A6111D065B103D0655166110CE16D518D
:101EE800020D010EF324D96E050EF420DA6EDF38E8
:101EF8000F0B00016A6FD890663365336D2B605104
:101F08006D5D67E2BAD7040E696F6A6F6751681131
:101F180060E102019E51020DA00EF324D96E020E5B
:101F2800F420DA6EDF9055D06D6B6D51020D010E05
:101F3800F324D96E050EF420DA6EDF500F0B246EF1
:101F480000016951245C0BE26D51020D010EF3246E
:101F5800D96E050EF420DA6EDF500F0B696F6D51E4
:101F6800020D010EF324D96E050EF420DA6EDF3867
:101F78000F0B00016A610BD06D51020D010EF324A5
:101F8800D96E050EF420DA6EDF380F0B6A6F6D2BF1
:101F98003F0E6D65CAD7675168111BE0040E6A6F62
:101FA80018D06BC0D9FF6CC0DAFF0001DF38070B0F
:101FB80001E153D7010A01E150D7030A01E14DD7E6
:101FC800010A01E14AD7070A9EE0020AADE0010AC8
:101FD8009AE000016D6B6D51020D000EF324D96E6D
:101FE800050EF420DA6EDE0432E16D51020D010EA9
:101FF800F324D96E050EF420DA6EDF500F0B246E31
:1020080000016951245C0BE26D51020D010EF324AD
:10201800D96E050EF420DA6EDF500F0B696F6D5123
:10202800020D010EF324D96E050EF420DA6EDF38A6
:102038000F0B00016A610BD06D51020D010EF324E4
:10204800D96E050EF420DA6EDF380F0B6A6F6D2B30
:10205800460E6D65C0D76451BBEC6FF0000915E101
:1020680000016951645D11E364516A5D0EE3020188
:102078009E51020DA00EF324D96E020EF420DA6EE2
:10208800DF8200016451F5EC70F00B0E0001636112
:102098001AD0060E631917E002019E51020DA00E18
:1020A800F324D96E020EF420DA6EDF84050E0001E7
:1020B800636102D0616F02D063C061F06151D5ECF9
:1020C80070F00201098902019E51020DA00EF3244D
:1020D800D96E020EF420DA6EDFA00ED067C01DF0B4
:1020E80068C01EF06BC0D9FF6CC0DAFF0001DF3892
:1020F800070B1F6E1EEC54F002019E51020DA00E3C
:10210800F324D96E020EF420DA6EDFB414D09E5197
:10211800020DA00EF324D96E020EF420DA6EDFB29F
:102128000AD09E51020DA00EF324D96E020EF4209F
:10213800DA6EDFA031D06BC0D9FF6CC0DAFFDF5098
:102148000F0B03E10201CD6B0AD06BC0D9FF6CC045
:10215800DAFFDF500F0B246E24040201CD6F098BC8
:102168001BD09E51020DA00EF324D96E020EF4204E
:10217800DA6EDF909E51020DA00EF324D96E020E86
:10218800F420DA6EDF929E51020DA00EF324D96E70
:10219800020EF420DA6EDF9422C022F023C023F06E
:1021A8001200D9C0D9FFDAC0DAFFDECFDEF0DDCF0A
:1021B800DFF0000120EE02F0D951D926DA51DA22F7
:1021C800DECFE0F0DDCFE1F0010EE26FE369DEC0C3
:1021D8007FF0DFC080F022EC3DF0E36FE3BF91D1E8
:1021E800E46B070EE46501D08CD1E451020D990E21
:1021F800F324D96E030EF420DA6EDECF16F0DDCFAD
:1022080017F0E0C018F0E1C019F09DEC39F0165055
:10221800171001E073D1270E0001E325F66EF76A67
:10222800F70EF722F86A000EF8220800F5CFDBF067
:10223800E4C0DCF0010EDD6FDC2B02D0D890DD3776
:10224800DC2FFCD70001DD51DB1501E157D1E26B32
:1022580026D10F013891929051D10F013891928077
:102268004DD192800F01388149D1E451F2E0010A41
:10227800F4E0030AF6E0ECD00F01389392923ED1D5
:102288000F01389392823AD192820F01388336D166
:10229800E451F2E0010AF4E0030AF6E0D9D00F01B4
:1022A800389592942BD10F013895928427D1928436
:1022B8000F01388523D1E451F2E0010AF4E0030A62
:1022C800F6E0C6D00F013897929618D10F013897CB
:1022D800928614D192860F01388710D1E451F2E02A
:1022E800010AF4E0030AF6E0B3D0929807D1928885
:1022F80005D1E451FAE0010AFAE0CFD00F01389B8A
:10230800929AFCD00F01389B928AF8D0928A0F01DA
:10231800388BF4D0E451F2E0010AF4E0030AF6E065
:1023280097D00F013C919690E9D00F013C9196808F
:10233800E5D096800F013C81E1D0E451F2E0010A3A
:10234800F4E0030AF6E084D00F013C939692D6D0CD
:102358000F013C939682D2D096820F013C83CED057
:10236800E451F2E0010AF4E0030AF6E071D00F014B
:102378003B959594C3D00F013B959584BFD0958428
:102388000F013B85BBD0E451F2E0010AF4E0030AF7
:10239800F6E05ED00F013C959694B0D00F013C95C5
:1023A8009684ACD096840F013C85A8D0E451F2E025
:1023B800010AF4E0030AF6E04BD00F013A9B949A25
:1023C8009DD00F013A9B948A99D0948A0F013A8B39
:1023D80095D0E451F2E0010AF4E0030AF6E038D0BF
:1023E8000F013B9B959A8AD00F013B9B958A86D01B
:1023F800958A0F013B8B82D0E451F2E0010AF4E0A8
:10240800030AF6E025D00F013B9F959E77D00F0178
:102418003B9F958E73D0958E0F013B8F6FD0E45103
:10242800F2E0010AF4E0030AF6E012D00F013B9D46
:10243800959C64D00F013B9D958C60D0958C0F01C5
:102448003B8D5CD0E451F2E0010AF4E0030AF6E0C7
:10245800010A54D0929E52D0928E50D0E451FAE0A4
:10246800010AFAE01AD0929C49D0928C47D0E451E4
:10247800FAE0010AFAE011D0939E40D0938E3ED044
:10248800E451FAE0010AFAE008D0939C37D0938C23
:1024980035D0E451FAE0010AFAE0020A2FD0E351FC
:1024A80001E1E3D6010A01E1F3D6030A01E103D70A
:1024B800010A01E113D7070A01E11BD7010A01E16B
:1024C80029D7030A01E139D7010A01E149D70F0ADF
:1024D80001E159D7010A01E169D7030A01E179D776
:1024E800010A8AE0070A9BE0010AACE0030AB6E0A9
:1024F800010ABDE01F0AC4E0010ACBE00001E42B99
:1025080070D6E251020DEB0EF324D96E010EF420C1
:10251800DA6EDECFDBF0DDCFDCF020EE06F0D9514D
:10252800D926DA51DA22DBC0DEFFDCC0DEFFDD6A45
:10253800120000016A6F696B6B6B080E6A194BE138
:1025480027EED4F0DE50DE10D8B4120027EED4F017
:10255800DECF60F0DDCF61F08F0E6025D96E050EFD
:102568006121DA6EDF502CE1D3C7E8FFFF0FE8CF17
:10257800D3F727EED3F0DF50020DB60EF324D96E51
:10258800070EF420DA6EDECFD6F7DDCFD7F727EEC9
:10259800D3F0DF50020DB60EF324D96E070EF420E7
:1025A800DA6EDE6ADD6A27EED3F0DF50020DC40E64
:1025B800F324D96E070EF420DA6EDE6ADD6A05D0E0
:1025C80027EED6F0DE06000EDD5A27EED4F0DE0642
:1025D800000EDD5A000C27EED4F0250EDE5C020E4C
:1025E800DE5859E2200E6A1958E127EED3F0060E9C
:1025F800DF6051D027EED4F0DECF60F0DDCF61F0A0
:10260800900E6025D96E050E6121DA6E000EDF6A24
:1026180027EED4F0DE2ADD2227EED6F007EED3F03F
:10262800EF50020DB60EF324E96E070EF420EA6EA1
:10263800DECFEEFFDDCFEDFF6069616927EED6F0F2
:10264800DECF62F0DDCF63F027EED4F0DECF64F0AA
:10265800DDCF65F06251645F6351655B605164274B
:102668006151652327EED3F0DF50020DC40EF32429
:10267800D96E070EF420DA6E64C0DEFF65C0DDFF98
:10268800D3C7E8FF010FE8CFD3F7000EE8CFD6F79E
:10269800E8CFD7F7DED06969DCD027EED4F0DECFFB
:1026A80060F0DDCF61F0900E6025D96E050E6121D6
:1026B800DA6E6AC0DFFF27EED4F0DE2A000EDD22D4
:1026C80027EED6F0DE2ADD22E90E166EFF0E176E13
:1026D8001610D8A4000E186ED3EC61F027EED4F0D3
:1026E8001650DE5C1750DE584DE3010E00016B6F8B
:1026F800E90E166EFF0E176E1610D8A4000E186E8F
:10270800D3EC61F0165000016C6F38D027EED4F08E
:10271800DECF60F0DDCF61F0900E626F050E636F63
:102728006C51625F000E635B60516225D96E615126
:102738006321DA6EDF50646FE90E166EFF0E176EB6
:102748001610D8A4000E186ED3EC61F0E90E000143
:10275800656FFF0E666F16506527175066236C511C
:10276800655F000E665B65C0F6FF66C0F7FFF86A36
:102778000800F5506419D8A46B6B6C076C5102E023
:102788006B51C4E100016B5164E027EED4F0DECF59
:1027980060F0DDCF61F0E90E166EFF0E176E1610B1
:1027A800D8A4000E186ED3EC61F0900E0001626F91
:1027B800050E636F1650625F1750635B60516225A8
:1027C800D96E61516321DA6EDF6AE90E166EFF0E6B
:1027D800176E1610D8A4000E186ED3EC61F027EE11
:1027E800D6F0DECF60F0DDCF61F016500001605FFB
:1027F8001750615B27EED3F0DF50020DB60EF324BD
:10280800D96E070EF420DA6E60C0DEFF61C0DDFF0E
:1028180027EED6F0DECF60F0DDCF61F027EED4F002
:10282800DECF62F0DDCF63F06051625F6151635BC0
:1028380027EED3F0DF50020DC40EF324D96E070E35
:10284800F420DA6E62C0DEFF63C0DDFF010EE8CF60
:10285800D2F76929D8A4120043EC61F0B1C316F08D
:10286800B2C317F016501710D8A4000E186ED3EC88
:1028780061F016C067F017C068F0B1C31CF0B2C3AE
:102888001DF01C501D10D8A4000E1E6E67C01FF04E
:1028980068C020F04CEF4EF0CB6F100ECF6FCD6BB1
:1028A800010EE66EE66AE66AE66ACC0EC96FC9C032
:1028B800E6FFE66A21EC53F00F0EE66E010EE66EB7
:1028C800E66AE66AEA0EE66E090EE66E21EC53F059
:1028D800100EE66EE66AE66AE66ACF0EE66E030E4C
:1028E800E66E21EC53F00001CB0507E1CC511F0B3C
:1028F8008009CC6F0201068104D0CC511F0B40091E
:10290800CC6FFC0E0001CC17E30ECC17EA0ECF25D6
:10291800D96EDA6A090EDA22CCC0DFFFCF2BEA0EB5
:10292800CF25166E176A090E1722240E186E020E8E
:10293800196E1B6A040E1A6E2FEC5EF0040E00016D
:10294800CF27CE6B020108AD30D00001CE8F020137
:10295800D651E25D29E20001CE8D02010689C74BFE
:10296800C82B9A51C719C81102E1E56B1AD09A51C0
:102978000001C96FCA6B0201C7510001C95D02019C
:10298800C8510001CA590EE20201E52B9B51E55DD1
:102998000CE3E56B44EC4CF0000907E10201C76B5E
:1029A800C86B0001CE9D02010699020106A304D05E
:1029B8000001CE8B020106930001CE9902019E51BF
:1029C80004E00001C751C81116E1F00E0001CE174E
:1029D80035500AE0CE510F0BC96F020EC927CE51F0
:1029E800C919F00BC919CE6F36500EE0CE510F0B36
:1029F800C96FC92B04D0B2EC42F00001C96FCE51A7
:102A0800C919F00BC919CE6FEA0ECF25D96EDA6A4B
:102A1800090EDA22CEC0DFFFCF2BEA0ECF25166EC5
:102A2800176A090E17220C0E186E020E196E1B6A11
:102A3800020E1A6E2FEC5EF0020E0001CF27020183
:102A48009E510FE00001C751C8110BE0EA0E166E47
:102A5800090E176ECF0E186E010E196E18EC1CF0C9
:102A680017D002019E5114E1355008E0EA0E166EA7
:102A7800090E176ECF0E186E7EEC66F0365008E021
:102A8800EA0E166E090E176ECF0E186E33EC6BF049
:102A9800EA0E0001CF25D96EDA6A090EDA22C4C01F
:102AA800DFFFCF2BC751C8112FE0EA0ECF25166ED6
:102AB800176A090E1722C5C018F0C6C019F0C7C09A
:102AC8001AF0C8C01BF02FEC5EF0C5C08FF0C6C06E
:102AD80090F0C7C091F00001926B0CC293F00DC248
:102AE80094F00EC295F00FC296F0380E976F020E52
:102AF800986FCFC099F0EA0E9A6F090E9B6F9C6B86
:102B0800A7EC2CF0C7512AD002019E5128E0F90EFB
:102B1800166E0A0E176ECD0E186E196A18EC1CF098
:102B2800F90E00018F6F0A0E906FCDC091F0926B75
:102B38000CC293F00DC294F00EC295F00FC296F03D
:102B4800280E976F020E986FCFC099F0EA0E9A6F11
:102B5800090E9B6F9C6BA7EC2CF0CD51CF270CC2B4
:102B680020F00DC221F00EC222F00FC223F00001A6
:102B7800CF51F00F246E490E256E000E266A84ECA4
:102B880045F0EA0E166E090E176ECF0E186E030E7C
:102B9800196E1B6A100E1A6E2FEC5EF0280E0001DB
:102BA800B66F020EB76FCF0EB86F030EB96FEA0E8D
:102BB800BA6F090EBB6FCFC0BCF0FEEC15F0EA0E81
:102BC8000001CF25166E176A090E1722CF0E186E50
:102BD800030E196E1B6A040E1A6E2FEC5EF0040EBB
:102BE8000001CF27F00ECF250201CB6FCC6BFF0E73
:102BF800CC2312000101656B646B626B606B616BC7
:102C0800B6C08FF0B7C090F0100E0001916F010EA2
:102C1800926F000E936F010E946F1AEC36F0BC5150
:102C2800BD6FBE6B0F0EBD27000EBE23040EBF6F17
:102C3800BE35BE33BD33BF2FFBD7BD510101636F16
:102C4800635104E1010E636F626B0AD0BCC0BDF032
:102C58000F0E0001BD17010ED8A4000E0101626F0E
:102C6800620541E1646B6351100DF350F00F656F1D
:102C78001ED0200E01016425D96EDA6A010EDA220F
:102C8800100E6425E96EEA6A010EEA22EF5000018F
:102C9800BD6F010165510001BA25E96E000EBB2127
:102CA800EA6EEF50BD19DF6E0101642B652B63518D
:102CB8000001BD6FBE6BBD3BBE3BF00EBE17BD51E4
:102CC8000F0BBE13F00EBD17010165510001BF6F58
:102CD800C06BBD51BF5DC051800AC16FBE51800A33
:102CE800C15963E2C6D70001BC51BA25BD6F000EB9
:102CF800BB21BE6FBC510F0BBD5D0101606F0001B0
:102D0800BE51D8A0BE050101616F656B0001BC51C1
:102D18000F0B010165610FD065516025D96E000E5A
:102D28006121DA6E300E6525E96EEA6A010EEA2243
:102D3800DFCFEFFF16D00001BC510F0B0101651961
:102D480008E1300E6525D96EDA6A010EDA22800EA6
:102D580007D0300E6525D96EDA6A010EDA22000E28
:102D6800DF6E652B0F0E6565D1D7656B200E652567
:102D7800D96EDA6A010EDA22000E6525E96EEA6A72
:102D8800010EEA22EF500001BD6F300E01016525EA
:102D9800E96EEA6A010EEA22EF500001BD19DF6E02
:102DA8000101652B0F0E6565E1D7100EE66EE66A28
:102DB800E66AE66A500EE66E010EE66E21EC53F006
:102DC8000101656B50D00101646B400E6425D96E1A
:102DD800DA6A010EDA2265510001BD6FBE6BBD3B98
:102DE800BE3BF00EBE17BD510F0BBE13F00EBD1744
:102DF800BAC0BFF0BBC0C0F0BD51BF27BE51C02391
:102E0800010164510001BF25E96E000EC021EA6E80
:102E1800EF50C16F500E01016425E96EEA6A010E98
:102E2800EA22EF500001C119DF6E0101642B0F0E79
:102E38006465CBD7500E166E010E176E400E186ED5
:102E4800010E196E1B6A100E1A6E2FEC5EF0500EF2
:102E580000017B6F010E7C6FB6C07DF0B7C07EF0BD
:102E680064EC6AF0652B0001BD69BE69010163511C
:102E78000001BF6FC06BBD51BF27BE51C023010108
:102E880065510001C16FC26BBF51C15DC251800A5B
:102E9800C36FC051800AC35996E30101656B400EA8
:102EA8006525D96EDA6A010EDA22200E6525E96EEB
:102EB800EA6A010EEA22EF500001BD6F500E0101CF
:102EC8006525E96EEA6A010EEA22EF500001BD1994
:102ED800DF6E0101652B0F0E6565E1D7400E00011D
:102EE8007B6F010E7C6FB6C07DF0B7C07EF064ECDE
:102EF8006AF0B8C016F0B9C017F0400E186E010E8F
:102F0800196E1B6A100E1A6E2FEC5EF0120077D144
:102F18007F5101E199D0D80E166E070E176E73C354
:102F280018F074C319F082EC68F0D80E166E070E0C
:102F3800176E1610D8A4200E186ED3EC61F016C0C8
:102F48008BF017C08CF0D80E00018B25696F070E27
:102F58008C216A6F7DC0D9FF7EC0DAFFDF506B6FAE
:102F68006C6B6E6B0A0E6D6F9BEC66F0D80E166E6E
:102F7800070E176E1610D8A4200E186ED3EC61F049
:102F880016C08BF017C08CF0D80E00018B25D96EB7
:102F9800070E8C21DA6E200EDF6E8B4B8C2B81692D
:102FA80082697F51836F846B815183278251842387
:102FB800120E856F020E866F8B51855F8C51865B72
:102FC800D8908631886F8531876F8351875D8451AA
:102FD800885910E2120E816F020E826F8B51815F49
:102FE8008C51825BD8908231836F8131896F83C025
:102FF8008AF006D0FF0E7F25896F8A6BFF0E8A2321
:103008007D29716F000E7E21726FD80E8B25736F2C
:10301800070E8C21746F8951CAEC3EF0D80E166EDB
:10302800070E176E1610D8A4200E186ED3EC61F098
:1030380016C08DF017C08EF0D80E1C6E070E1D6ED0
:103048001C10D8A4200E14D06FC316F070C317F04C
:1030580016501710D8A4000E186ED3EC61F016C0E5
:103068008DF017C08EF06FC31CF070C31DF0C2D076
:103078001E6E8DC01FF08EC020F04CEF4EF07F51B9
:1030880056E0D80E166E070E176E71C318F072C38D
:1030980019F082EC68F0D80E166E070E176E16102F
:1030A800D8A4200E186ED3EC61F016C08BF017C0B0
:1030B8008CF0D80E00018B25D96E070E8C21DA6EA4
:1030C800200EDF6E8B4B8C2B120E816F020E826FDF
:1030D8008B51815F8C51825BD8908231846F8131B2
:1030E800836F7F51835D000E845910E2120E816F49
:1030F800020E826F8B51815F8C51825BD890823136
:10310800836F8131896F83C08AF003D07FC089F0D3
:103118008A6B7DC071F07EC072F0D80E8B25736FFC
:10312800070E8C21746F8951CAEC3EF077D76DC3B6
:1031380016F06EC317F016501710D8A4000E186EAC
:10314800D3EC61F016C08DF017C08EF06DC31CF083
:103158006EC31DF04FD075C316F076C317F0165026
:103168001710D8A4000E186ED3EC61F016C08DF0BD
:1031780017C08EF075C31CF076C31DF03BD077C323
:1031880016F078C317F016501710D8A4000E186E52
:10319800D3EC61F016C08DF017C08EF077C31CF029
:1031A80078C31DF027D079C316F07AC317F01650EC
:1031B8001710D8A4000E186ED3EC61F016C08DF06D
:1031C80017C08EF079C31CF07AC31DF013D07BC3EF
:1031D80016F07CC317F016501710D8A4000E186EFE
:1031E800D3EC61F016C08DF017C08EF07BC31CF0D5
:1031F8007CC31DF01C501D10D8A4000E39D7000147
:103208008051BDE0010A01E183D6030AA4E0010A66
:1032180001E135D7070AC7E0010AD8A41200D7D7B9
:1032280000017A6B1E507A25D96EDA6A7A51600FDE
:10323800E96EEA6ADFCFEFFF7A2B0F0E7A65F2D7D5
:103248000A0E0101A36F010E306E00017A6B7A51EC
:10325800600FD96EDA6ADF501F6E7A511C24D96E5E
:10326800000E1D20DA6E1F50DF1A7A2B0F0E7A65BA
:10327800EED700017A6B7A511C24D96E000E1D20FE
:10328800DA6EDF501F6E206A270E1F24F66EF60EC8
:103298002020F76EF86A000EF8227A511C24D96EA5
:1032A800000E1D20DA6E0800F5CFDFFF7A2B0F0E17
:1032B8007A65E1D71CC016F01DC017F0F6EC2BF0AC
:1032C8000101A30501E113D100017A6B7A511C2495
:1032D8001F6E000E1D20206E1F28D96E000E2020A4
:1032E800DA6EDF50216E7A511C24D96E000E1D2033
:1032F800DA6EDF502118786F7A511C241F6E000E89
:103308001D20206E030E1F24D96E000E2020DA6EB9
:10331800DF50216E7A511C24226E000E1D20236E70
:10332800020E2224D96E000E2320DA6EDF502118F7
:10333800796F78517919766F7A511C241F6E000EB7
:103348001D20206E1F28D96E000E2020DA6EDF5057
:10335800216E7A511C24226E000E1D20236E020E4F
:103368002224D96E000E2320DA6EDF502118776FE1
:103378007F0E78650CD01B0E78C01FF0206AD8909D
:103388001F3620361F18706F2050716F05D0D890E7
:103398007835706F716B713770C078F07F0E776514
:1033A8000CD01B0E77C01FF0206AD8901F3620362D
:1033B8001F18726F2050736F05D0D8907735726FD1
:1033C800736B733772C077F07F0E79650CD01B0E64
:1033D80079C01FF0206AD8901F3620361F18746FE6
:1033E8002050756F05D0D8907935746F756B753727
:1033F80074C079F07A511C24D96E000E1D20DA6E43
:103408007A511C24E96E000E1D20EA6EEF507619E1
:103418007819DF6E7A511C241F6E000E1D20206E55
:103428001F28D96E000E2020DA6E7A511C24216ED6
:10343800000E1D20226E2128E96E000E2220EA6E61
:10344800EF5076197719DF6E7A511C241F6E000E23
:103458001D20206E020E1F24D96E000E2020DA6E69
:103468007A511C24216E000E1D20226E020E21248A
:10347800E96E000E2220EA6EEF5076197919DF6E98
:103488007A511C241F6E000E1D20206E030E1F246F
:10349800D96E000E2020DA6E7A511C24216E000E9F
:1034A8001D20226E020E2124E96E000E2220EA6EF3
:1034B800EF50236E7A511C24246E000E1D20256EB9
:1034C8002428E96E000E2520EA6EEF50266E7A5108
:1034D8001C24E96E000E1D20EA6EEF5026182318F2
:1034E8007619DF6E040E7A270F0E7A65EFD6600E16
:1034F800D4EC1EF000017A6B7A51600FD96EDA6A4B
:10350800DF501F6E7A511C24D96E000E1D20DA6E12
:103518001F50DF1A7A2B0F0E7A65EED70101A30729
:10352800A351D8B41200A5D601016D6BA9C380F1CF
:10353800AAC381F180518111D8A4000E826F706BEB
:103548003ED07051090DF3500001F6250101666F58
:10355800F4500001F7210101676F000E0001F82106
:103568000101686F66C1F6FF67C1F7FF68C1F8FF20
:1035780021EE71F0080E0900F5CFDEFFE806FBE248
:1035880071C116F072C117F00001FA51020DC40E94
:10359800F324D96E070EF420DA6EDECF66F1DDCFA4
:1035A80067F1900E01016625186E050E6721196EE8
:1035B8009DEC39F01650171007E00101702B00013F
:1035C800F9510101705DBDE30001F9510101705D20
:1035D80001E30AD173517411751101E0FAD07651E3
:1035E800771101E101D17951666F676B0001FA51DA
:1035F800D3C768F168C169F101016A6B695F000EA0
:103608006A5B6651691903E167516A19D8A4ECD05D
:103618000001FA2901016F6F6E6B795114E06F2B6D
:103628006F05020DB60EF324D96E070EF420DA6E7C
:10363800DE50DE1003E1010E6E6F05D027EED3F0E9
:103648006F51DE5CECE26E5101E0CED0090EE66E01
:10365800E66AE66AE66A7A0EE66E010EE66E21EC26
:1036680053F00001FA510101666F676B662B000E7B
:10367800672367512DE1070E665DD8B029D0000198
:10368800FA510101666F676BD89066376737B80ED5
:103698006625D96E070E6721DA6EDE50DE1018E057
:1036A8000001FA510101666F676BD890663767377A
:1036B800C60E6625D96E070E6721DA6EDECF68F171
:1036C800DDCF69F1900E68257A6F050E69217B6F51
:1036D8000001FA510101666F676B020E6627000E42
:1036E800672367512DE1070E665DD8B029D0000128
:1036F800FA510101666F676BD89066376737BA0E63
:103708006625D96E070E6721DA6EDE50DE1018E0E6
:103718000001FA510101666F676BD8906637673709
:10372800C80E6625D96E070E6721DA6EDECF68F1FE
:10373800DDCF69F1900E68257C6F050E69217D6FDC
:103748000001FA510101666F676B030E6627000ED0
:10375800672367512DE1070E665DD8B029D00001B7
:10376800FA510101666F676BD89066376737BC0EF0
:103778006625D96E070E6721DA6EDE50DE1018E076
:103788000001FA510101666F676BD8906637673799
:10379800CA0E6625D96E070E6721DA6EDECF68F18C
:1037A800DDCF69F1900E68257E6F050E69217F6F68
:1037B8007A0E0001D96F010EDA6F01D815D0050015
:1037C800FA6E01017651FD6E7751FE6EFF6AFA506E
:1037D8001200010E6D6FFBC0D9FFFCC0DAFF70C18B
:1037E800DFFF806B816B826B010180518111821137
:1037F80018E080C116F081C117F082C118F0D3EC2F
:1038080061F016C06BF117C06CF180C11CF081C16A
:103818001DF082C11EF06BC11FF06CC120F04CEC92
:103828004EF001016D5112001850D96EDA6ADF505E
:10383800216E206A6CD1195001E14ED12050020D41
:103848009F0EF324D96E020EF420DA6EDE2801E111
:1038580043D1FE0E1A6E1B682050020D9F0EF324F2
:10386800D96E020EF420DA6EDF501C6E1D6A1A50F3
:103878001C261B501D227C0E1C24F66EF70E1D20E4
:10388800F76EF86A000EF8220800F55021C01EF005
:103898001F6A1E26000E1F221850D96EDA6ADF50E2
:1038A8001E5E000E1F5A1FBE17D11F5005E1100ED5
:1038B8001E5C01E331D110D12FD121501624D96ECD
:1038C800000E1720DA6E030EDF6E212A215016240F
:1038D800D96E000E1720DA6EDF6A2050020DA00E96
:1038E800F324D96E020EF420DA6EDFA008D021503E
:1038F8001624D96E000E1720DA6E000EDB802050D9
:10390800020DA00EF324D96E020EF420DA6EDFA2A7
:1039180008D021501624D96E000E1720DA6E000E3A
:10392800DB822050020DA00EF324D96E020EF42083
:10393800DA6EDFA408D021501624D96E000E1720A5
:10394800DA6E000EDB84212AE1D021501624D96ECC
:10395800000E1720DA6E050EDF6E212A215016247C
:10396800D96E000E1720DA6EDF6A2050020DA00E05
:10397800F324D96E020EF420DA6EDFA608D02150A7
:103988001624D96E000E1720DA6E000EDB80205048
:10399800020DA00EF324D96E020EF420DA6EDFA811
:1039A80008D021501624D96E000E1720DA6E000EAA
:1039B800DB822050020DA00EF324D96E020EF420F3
:1039C800DA6EDFAA08D021501624D96E000E17200F
:1039D800DA6E000EDB8421501624D96E000E1720F3
:1039E800DA6EDF500101AB6FAED721501624D96EC5
:1039F800000E1720DA6E060EDF6E212A21501624DB
:103A0800D96E000E1720DA6ED7C2DFFF212A26EC06
:103A180071F0800AA00F05E326EC71F0800A600FB0
:103A280008E321501624D96E000E1720DA6E200EF6
:103A380009D021501624D96E000E1720DA6E26EC14
:103A480071F03F0BDF6E7FD721501624D96E000E20
:103A58001720DA6E070EDF6E212A21501624D96E40
:103A6800000E1720DA6EDF6A2050020DA00EF32434
:103A7800D96E020EF420DA6EDFAE08D0215016247B
:103A8800D96E000E1720DA6E000EDB802050020D72
:103A9800A00EF324D96E020EF420DA6EDFAC53D7F1
:103AA80021501624D96E000E1720DA6E000EDB8224
:103AB8004AD7D469D56B2050020D9F0EF324D96ED6
:103AC800020EF420DA6E21501624E96E000E17203B
:103AD800EA6EDFCFEFFF37D72050020D9F0EF32499
:103AE800D96E020EF420DA6EDF50020AE2E0010A13
:103AF80001E1E3D6070ADFE0010A01E126D7030A5C
:103B080001E173D7010AA0E00F0AD5E0202A0201DB
:103B18009E51205C01E28FD61850D96EDA6A21C016
:103B2800DFFF1200020109B115D1E86B0851F00B53
:103B38000209086F06A582D0470E1D25F66EF76AA2
:103B4800F70EF722F86A000EF8220800F5CF91F078
:103B5800905100019125926F000E91BFFF0E020156
:103B680091210001936F946B956B0C0ED89092374E
:103B7800933794379537E82EF9D792C016F093C04B
:103B880017F094C018F095C019F07D0E1A6E1B6AD4
:103B98001C6A1D6A8BEC55F016C023F017C024F080
:103BA80018C025F019C026F00201D9519AEC64F02A
:103BB800470E02012225F66EF76AF70EF722F86A19
:103BC800000EF8220800F5CF91F0925100019125DE
:103BD800926F000E91BFFF0E020193210001936FB7
:103BE800946B956B0C0ED890923793379437953722
:103BF800E82EF9D792C016F093C017F094C018F0C9
:103C080095C019F07D0E1A6E1B6A1C6A1D6A8BEC32
:103C180055F016C023F017C024F018C025F019C0BD
:103C280026F00201DA519AEC64F00201D95119EC3C
:103C380052F00201DA5119EC52F081D0470E1D25DD
:103C4800F66EF76AF70EF722F86A000EF8220800F7
:103C5800F5CF91F08C5100019125926F000E91BF24
:103C6800FF0E02018D210001936F946B956B0C0E72
:103C7800D8909237933794379537E82EF9D792C072
:103C880016F093C017F094C018F095C019F07D0E87
:103C98001A6E1B6A1C6A1D6A8BEC55F016C023F05D
:103CA80017C024F018C025F019C026F00201DB5116
:103CB8009AEC64F0470E02012225F66EF76AF70EB9
:103CC800F722F86A000EF8220800F5CF91F08E511D
:103CD80000019125926F000E91BFFF0E02018F2106
:103CE8000001936F946B956B0C0ED89092379337B5
:103CF80094379537E82EF9D792C016F093C017F08D
:103D080094C018F095C019F07D0E1A6E1B6A1C6AD3
:103D18001D6A8BEC55F016C023F017C024F018C0AC
:103D280025F019C026F00201DC519AEC64F002017A
:103D3800DB5119EC52F00201DC5119EC52F0020E81
:103D480002011819D8A412000851F00B0809086FCD
:103D58004BEF59F029EC71F00001916F91A90ED049
:103D68007D6B7E6B7F6B020E806F0500FA6E2A50AA
:103D7800FD6E2B50FE6EFF6AFA5012002A502B106F
:103D8800D8B412007D6B7E6B7F6B030E806F0500CD
:103D9800FA6E2A50FD6E2B50FE6EFF6AFA50120022
:103DA8001B6E1B50D96EDA6A0D0ED926DF50166EBF
:103DB800176A270E1624F66EF60E1720F76EF86AA5
:103DC800000EF8220800F5CF18F01B50D96EDA6AF9
:103DD8001850DF1A1B50D96EDA6A0E0ED926DF503A
:103DE800166E176A270E1624F66EF60E1720F76E53
:103DF800F86A000EF8220800F5CF18F01B50D96EAB
:103E0800DA6AD92A1850DF1A1B50D96EDA6A0F0EEF
:103E1800D926DF50166E176A270E1624F66EF60E90
:103E28001720F76EF86A000EF8220800F5CF18F090
:103E38001B50D96EDA6A020ED9261850DF1A1B50A9
:103E4800D96EDA6A0C0ED926DF50166E176A270E5D
:103E58001624F66EF60E1720F76EF86A000EF82292
:103E68000800F5CF18F01B50D96EDA6A030ED92670
:103E78001850DF1A1B50D96EDA6A3050DF1A7F0EDD
:103E880030640CD01B0E30C016F0176AD890163666
:103E980017361618196E17501A6E05D0D890303488
:103EA800196E1A6A1A3619C030F01B50D96EDA6AC0
:103EB800DF50166E1B50D96EDA6A040ED9261650DA
:103EC800DF1A1B50D96EDA6AD92ADF50166E1B50DA
:103ED800D96EDA6A050ED9261650DF1A1B50D96E2C
:103EE800DA6A020ED926DF50166E1B50D96EDA6ACE
:103EF800060ED9261650DF1A1B50D96EDA6A030E41
:103F0800D926DF50166E1B50D96EDA6A070ED926ED
:103F18001650DF1A1B50D96EDA6A040ED926DF5004
:103F2800166E1B50D96EDA6A080ED9261650DF1A9B
:103F38001B50D96EDA6A050ED926DF50166E1B5053
:103F4800D96EDA6A090ED9261650DF1A1B50D96EB7
:103F5800DA6A060ED926DF50166E1B50D96EDA6A59
:103F68000A0ED9261650DF1A1B50D96EDA6A070EC8
:103F7800D926DF50166E1B50D96EDA6A0B0ED92679
:103F88001650DF1A1B50D96EDA6A080ED926DF5090
:103F9800166E1B50D96EDA6A0C0ED9261650DF1A27
:103FA8001B50D96EDA6A090ED926DF50166E1B50DF
:103FB800D96EDA6A0D0ED9261650DF1A1B50D96E43
:103FC800DA6A0A0ED926DF50166E1B50D96EDA6AE5
:103FD8000E0ED9261650DF1A1B50D96EDA6A0B0E50
:103FE800D926DF50166E1B50D96EDA6A0F0ED92605
:103FF8001650DF1A12001CC0D9FF1DC0DAFFDF50AF
:104008000001656F1C4A1D2A655134EC6CF0F3E21F
:104018000001616B626B636B646B606B2D0E6519DD
:104028000BE1010E606F1CC0D9FF1DC0DAFFDF5025
:10403800656F1C4A1D2A03D02B0E6519F4E0300E5B
:10404800651927E11CC0D9FF1DC0DAFFDF50656F75
:104058001C4A1D2A2050211004E0100E201821109F
:1040680012E1780E651903E0580E65190CE1216A12
:10407800100E206E1CC0D9FF1DC0DAFFDF50656F1F
:104088001C4A1D2A06D02050211003E1216A080E7F
:10409800206E2050211003E1216A0A0E206E65511E
:1040A800CBEC6BF008E300016551FBEC6EF0C90F37
:1040B8000001656F08D000016551F0EC6DF066E312
:1040C800300E0001655F6551226E236A2050225C24
:1040D8002350800A246E2150800A245857E220C0B9
:1040E80022F021C023F0000E23BEFF0E246E256EA1
:1040F80022506103F3CF26F0F4CF27F0286A296A0B
:104108006203F3502726F4502822000E2922235058
:104118006103F3502726F4502822000E292222504A
:104128006303F3502826F450292223506203F350E6
:104138002826F450292224506103F3502826F450ED
:10414800292264512202F350292623506303F35095
:10415800292624506203F350292625506103F35081
:10416800292665512624616F000E2720626F000EF4
:104178002820636F000E2920646F1CC0D9FF1DC062
:10418800DAFFDF50656F1C4A1D2A89D71E501F10A1
:104198000EE0FF0E1C24226EFF0E1D20236E1EC093
:1041A800D9FF1FC0DAFF22C0DEFF23C0DDFF0001F8
:1041B80060511AE061C022F062C023F063C024F0AD
:1041C80064C025F0221E231E241E251E222A000E4E
:1041D80023222422252222C01CF023C01DF024C043
:1041E8001EF025C01FF0000C61C01CF062C01DF05D
:1041F80063C01EF064C01FF012000101CFA506D0F5
:10420800800E0001716F030E706F030CCFC172F046
:10421800030E0001721705E0800E716F040E706FB7
:10422800040C8A867051711107E1000E286E040E85
:10423800276EB7EC0AF006D070C027F071C028F0DE
:10424800B7EC0AF00101C4050EE1010E186E220E4A
:1042580028EC6EF0186A400E28EC6EF0186A410ED1
:1042680028EC6EF012D0E0C118F0120E28EC6EF0B7
:10427800E1C118F0130E28EC6EF0186A400E28EC15
:104288006EF0186A410E28EC6EF00101CF83E70E3C
:10429800CF1700017051711108E1C4C11BF0000E65
:1042A8001C6E050E33EC3FF03FD00101C40508E158
:1042B800010E1B6E000E1C6E060E33EC3FF034D060
:1042C800000E1B6E1C6E050E33EC3FF000017051A2
:1042D800726F7151736F746B756B0C0ED890723767
:1042E800733774377537E82EF9D772C016F073C074
:1042F80017F074C018F075C019F07D0E1A6E1B6A9D
:104308001C6A1D6A8BEC55F016C023F017C024F008
:1043180018C025F019C026F00101D4519AEC64F0B8
:104328000101D45119EC52F00101D651D711D8111D
:10433800D91158E0D95106E1D629FF0ED7590F0EE9
:10434800D85918E3D6C116F0D7C117F0D8C118F05C
:10435800D9C119F07D0E1A6E1B6A1C6A1D6A8BEC96
:1043680055F00C0ED8901636173618361936E82E32
:10437800F9D720D0D6C172F0D7C173F0D8C174F084
:10438800D9C175F00C0ED8900001723773377437A5
:104398007537E82EF8D772C016F073C017F074C0DE
:1043A80018F075C019F07D0E1A6E1B6A1C6A1D6A1A
:1043B8008BEC55F016C076F017C077F018C078F07F
:1043C80019C079F076C023F077C024F078C025F0C2
:1043D80079C026F00101D5519AEC64F00101D5515C
:1043E80019EC52F00001706B716B1200736B6EC0A8
:1043F80074F06FC075F0DED002019E51020DA00E60
:10440800F324D96E020EF420DA6EDF909E51020D6D
:10441800A00EF324D96E020EF420DA6EDF929E51BC
:10442800020DA00EF324D96E020EF420DA6EDF948A
:104438009E51020DA00EF324D96E020EF420DA6EFE
:10444800DF969E51020DA00EF324D96E020EF420C1
:10445800DA6EDF989E51020DA00EF324D96E020E7B
:10446800F420DA6EDF9A9E51020DA00EF324D96E65
:10447800020EF420DA6EDF9C9E51020DA00EF3248A
:10448800D96E020EF420DA6EDF9E74C0D9FF75C0B3
:10449800DAFF9E51020D9F0EF324E96E020EF420FE
:1044A800EA6EDFCFEFFF60D074C016F075C017F06A
:1044B800FAEC69F016C074F017C075F002019E514D
:1044C800020D9F0EF324D96E020EF420DA6EDF6817
:1044D80062D074C022F075C023F0E8EC0EF022C060
:1044E80074F023C075F057D074C016F075C017F07B
:1044F80045EC6CF016C074F017C075F04CD074C061
:1045080024F075C025F0AEEC2EF024C074F025C060
:1045180075F041D074C016F075C017F08EEC70F0CD
:1045280016C074F017C075F036D074C027F075C087
:1045380028F004EC2EF027C074F028C075F02BD0BA
:1045480074C01BF075C01CF01FEC6BF01BC074F03E
:104558001CC075F020D0010E736F70516E25746FFA
:10456800000E6F21756FAAD774C0D9FF75C0DAFF26
:104578000001744B752BDF50020A96E0010AA9E08E
:10458800070AB2E0010ABBE0030AC4E0010ACDE071
:104598000F0AD6E0E0D702019E51020D9F0EF324C8
:1045A800D96E020EF420DA6EDE2804E0100E9E6149
:1045B80001D09E2B000170516E25716F000E6F2186
:1045C800726F7151745D7251755903E2735101E153
:1045D80013D774C06EF075C06FF012009E96C6AE09
:1045E800D4D0C69E0101A96B20EE03F09D51D926B7
:1045F8009E51DA22DECF04F0DDCF05F004C0D9FFEA
:1046080005C0DAFF010EDF6E9D6B9E6B12008AB348
:10461800120088C19DF189C19EF188C1D9FF89C165
:10462800DAFFDF50AA6F20EE01F08851D9268951B0
:10463800DA22DECF9FF1DDCFA0F1040E8827000E2D
:104648008923F20E881908E1020E8919D8A404D02A
:10465800EE0E886F020E896F8A918651881905E1DE
:1046680087518919D8A401D08A83C580020EA96F01
:10467800020CC5AC04D014D0040E09EF66F0D89033
:104688003930056E3830046E0450C96E38A003D036
:104698000B0EA96F0B0C030EA96F030CC5AC02D04F
:1046A8008C2BEAD7C5823950060BF009386E396A67
:1046B8003880010EA16FDAD7A1051AE09FC1D9FF92
:1046C800A0C1DAFFDECF38F0DDCF39F020EE03F0FD
:1046D8009F51D926A051DA22DECF95F1DDCF96F190
:1046E80020EE02F09F51D926A051DA22DF50A26FA6
:1046F80038C0C9FF38A0CFD7050EA96F050CC5ACC7
:1047080005D08C2BC59C050E09EF66F0A207A229DF
:1047180009E1050E9F27000EA023AA2F01D02ED055
:10472800C582A4D795C1D9FF96C1DAFFDF50C96EFB
:10473800954B962B1200C5AC06D08C2B040E09ECB9
:1047480066F0C59C1200C586080EA96F080C080EF5
:10475800A96FC586120095C1D9FF96C1DAFFC9CFE6
:10476800DFFF954B962BA20704E0C59A060EA96FAA
:1047780003D0C58AB9EC6EF0C5881200000E09EFA7
:1047880066F08C2B060E09EF66F00101A95101E1D4
:104798003ED7010AC5E0030A8FE0010AB0E0070A24
:1047A800EDE0010AC8E0030AD2E0010AE7E00F0AD7
:1047B800D2E0020A01E15DD7010A01E16FD7E1D732
:1047C8000101CFA506D0800E0001716F030E706F36
:1047D800030CCFC173F0030E0001731705E0800EC0
:1047E800716F040E706F040C0101C45109E1400E91
:1047F8000001726505D0800E716F020E706F020C99
:104808008A860101D3511AEC6EF0000E286E040E50
:10481800276EB7EC0AF00101C40521E172C018F057
:10482800220E28EC6EF00A0E50EC6DF000017F6F3E
:10483800F00E7F177F877FC018F00A0E28EC6EF005
:10484800400E186E28EC6EF0186A410E28EC6EF0D7
:10485800C4C11BF0010E1C6E33EC3FF008D0186A7F
:10486800400E28EC6EF0186A410E28EC6EF001013B
:10487800C45105E172C018F0000E28EC6EF05EEC31
:1048880071F0800E98EC70F00001806B0BD08051B5
:104898007025D96E000E7121DA6EDF5098EC70F039
:1048A8000001802B7251805DF2E35CEC71F0010134
:1048B800CF81E70ECF17C4C11BF0000E1C6E030E8C
:1048C80033EC3FF0236A246A0A0E256E266A01013A
:1048D800D3519AEC64F00101D35119EC52F0010163
:1048E800D651D711D811D91158E0D95106E1D62996
:1048F800FF0ED7590F0ED85918E3D6C116F0D7C1F5
:1049080017F0D8C118F0D9C119F07D0E1A6E1B6ABC
:104918001C6A1D6A8BEC55F00C0ED89016361736AB
:1049280018361936E82EF9D720D0D6C173F0D7C17A
:1049380074F0D8C175F0D9C176F00C0ED89000018A
:104948007337743775377637E82EF8D773C016F093
:1049580074C017F075C018F076C019F07D0E1A6E85
:104968001B6A1C6A1D6A8BEC55F016C07BF017C0D9
:104978007CF018C07DF019C07EF07BC023F07CC0AD
:1049880024F07DC025F07EC026F00101D5519AECB7
:1049980064F00101D55119EC52F00001706B716B94
:1049A8001200D9C0D9FFDAC0DAFFDECFDDF0DDCFE3
:1049B800DEF0000120EE02F0D951D926DA51DA22D0
:1049C800DECFE0F0DDCFE1F0010EDF6FE369DDC09F
:1049D8007FF0DEC080F022EC3DF0E26FE0C068F0CE
:1049E800E1C069F0010E6A6F6B6F6C6B6D6B6E6B7B
:1049F800E1EC52F0000909E0E0C019F0E1C01AF05A
:104A0800C5EC43F019500001E36FE2AFE3BF92D069
:104A1800DF6B6CD0E35102E189908CD089808AD019
:104A2800E35102E1899286D0898284D0E35102E180
:104A3800899480D089847ED0E35102E189967AD026
:104A4800898678D0E35102E1899874D0898872D038
:104A5800E35102E1899A6ED0898A6CD0E35102E170
:104A68008D9068D08D8066D0E35102E18D9262D03E
:104A78008D8260D0E35102E18C945CD08C845AD052
:104A8800E35102E18D9456D08D8454D0E35102E174
:104A98008B9A50D08B8A4ED0E35102E18C9A4AD03F
:104AA8008C8A48D0E35102E18C9E44D08C8E42D04F
:104AB800E35102E18C9C3ED08C8C3CD0E35102E166
:104AC800899E38D0898E36D0E35102E1899C32D054
:104AD800898C30D0E35102E18A9E2CD08A8E2AD06C
:104AE800E35102E18A9C26D08A8C24D0E25192E0DC
:104AF800010A96E0030A9AE0010A9EE0070AA2E08A
:104B0800010AA6E0030AAAE0010AAEE00F0AB2E031
:104B1800010AB6E0030ABAE0010ABEE0070AC2E0E9
:104B2800010AC6E0030ACAE0010ACEE01F0AD2E081
:104B3800010AD6E0DF51020DEB0EF324D96E010E07
:104B4800F420DA6EDECFDBF0DDCFDCF020EE06F00D
:104B5800D951D926DA51DA22DBC0DEFFDCC0DEFF0C
:104B6800DD6A12006AC0ACF16BC0ADF16CC0AEF189
:104B78006DC0AFF1A80E0101B06F610EB16FB26BDD
:104B8800B36B500EB46FC30EB56FB66BB76B010E37
:104B9800C46F070EC66F020EC76F010ECD6FCE6BC6
:104BA800B96B080EB86F0C0EC56F010EC86FC96BD4
:104BB800CC6BC10EBB6F940EBC6FC10EBD6F030EE4
:104BC800C36F340EBA6FCF6BD06B68C0D1F169C0B8
:104BD800D2F1CA6BCB6B800EDE6F980ED66F3A0E91
:104BE800D76FD86BD96B020EDF6F0B0EE06F120E0A
:104BF800E16FDB6BDC6BDA5121E1B3EC57F00101BB
:104C0800D36FB3EC57F00101D46FB3EC57F0010147
:104C1800D56F740E166ED40E176E186AD45113EC35
:104C280069F0C20E166ECC0E176E186A0101D551C6
:104C380013EC69F0010E0101DA6F0BD0D3511AECB5
:104C48006EF00101D4511AEC6EF00101D5511AEC45
:104C58006EF0B1EC67F0000E1B6E010E1C6E33ECAB
:104C68003FF0ACC123F0ADC124F0AEC125F0AFC117
:104C780026F068EC3BF0420E186E3B0E28EC6EF006
:104C88003B0E50EC6DF0276E27BAFAD7230E186E3C
:104C98000C0E28EC6EF01E0E186E0D0E28EC6EF041
:104CA800AA0E186E1F0E28EC6EF08F0E186E350EB9
:104CB80028EC6EF01868320E28EC6EF0400E186E74
:104CC800310E28EC6EF0010E1B6E1C6E000E33ECDC
:104CD8003FF093866186F19E286A05D081A602D0AE
:104CE800939603D0282A28AEF9D76196F18E1868D2
:104CF800230E28EC6EF0420E50EC6DF00101DD6FD2
:104D08001200D9C0D9FFDAC0DAFFDECFDDF0DDCF7F
:104D1800DEF0010E0001DF6FE169DDC07FF0DEC06B
:104D280080F022EC3DF0E06FE0AF5BD07FD0000E6A
:104D380080B0010EE16F79D0000E80B2010EE16FF4
:104D480074D0000E80B4010EE16F6FD0000E80B6F3
:104D5800010EE16F6AD0000E80B8010EE16F65D0D8
:104D6800000E80BA010EE16F60D0000E84B0010E13
:104D7800E16F5BD0000E84B2010EE16F56D0000ED9
:104D880083B4010EE16F51D0000E84B4010EE16FBF
:104D98004CD0000E82BA010EE16F47D0000E83BAE4
:104DA800010EE16F42D0000E83BE010EE16F3DD0CF
:104DB800000E83BC010EE16F38D0000E80BE010EDC
:104DC800E16F33D0000E80BC010EE16F2ED0000ED3
:104DD80081BE010EE16F29D0000E81BC010EE16F8A
:104DE80024D0E051A4E0010AA7E0030AAAE0010ADE
:104DF800ADE0070AB0E0010AB3E0030AB6E0010A31
:104E0800B9E00F0ABCE0010ABFE0030AC2E0010AE8
:104E1800C5E0070AC8E0010ACBE0030ACEE0010AB0
:104E2800D1E01F0AD4E0010AD7E0DF6BDF5118E0B8
:104E3800DF51020DEB0EF324D96E010EF420DA6E69
:104E4800DECFDBF0DDCFDCF020EE06F0D951D9263D
:104E5800DA51DA22DBC0DEFFDCC0DEFFDD6A1200D9
:104E6800D80E606F070E616FE151626F636B62BFAE
:104E78006307656B0A0E646F5BEC4BF0D80EDB6F53
:104E8800070EDC6F20EE06F0D951D926DA51DA2266
:104E9800DBC0DEFFDCC0DEFF200EDF6E200C6451BD
:104EA800666F6551676F686B696BE80E6603F3CFD1
:104EB8006AF0F4CF6BF06C6B6D6B6703F3506B2784
:104EC800F4506C23000E6D23030E6603F3506B271A
:104ED800F4506C23000E6D23E80E6803F3506C2722
:104EE800F4506D23030E6703F3506C27F4506D23C1
:104EF800000E6603F3506C27F4506D23E80E690327
:104F0800F3506D27030E6803F3506D27000E6703F7
:104F1800F3506D27000E6603F3506D276AC0C3F285
:104F28006BC0C4F26CC0C5F26DC0C6F264516511A5
:104F380028E10201DE511AEC6EF002010995000128
:104F4800726B18D07251020D9F0EF324D96E020EA7
:104F5800F420DA6E020EDE180BE17251020D9F0E7C
:104F6800F324D96E020EF420DA6EDF6802019E0780
:104F78000001722B02019E510001725DD8B012002F
:104F8800E1D70201098508A91200C65106E1C32923
:104F9800FF0EC4590F0EC55918E3C3C216F0C4C298
:104FA80017F0C5C218F0C6C219F07D0E1A6E1B6A3A
:104FB8001C6A1D6A8BEC55F00C0ED8901636173605
:104FC80018361936E82EF9D720D0C3C266F0C4C205
:104FD80067F0C5C268F0C6C269F00C0ED89000012F
:104FE8006637673768376937E82EF8D766C016F02E
:104FF80067C017F068C018F069C019F07D0E1A6E06
:105008001B6A1C6A1D6A8BEC55F016C06EF017C03F
:105018006FF018C070F019C071F06EC023F06FC047
:1050280024F070C025F071C026F00201DE519AEC20
:1050380064F00201DE5119EF52F03F0E50EC6DF0B2
:1050480000019E6F9EA71200C4C11BF0000E1C6ECB
:1050580033EC3FF00101CF91D5511AEC6EF08A96EE
:105068000101CFB91200D351AFEC65F0195007E137
:105078001F0E165CAC0E1758DF0E185847E30101D7
:10508800D351AFEC65F00D0E05D0D8901932183217
:1050980017321632E82EF9D77D0E00011603F3CF2A
:1050A80096F0F4CF97F0986B996B1703F350972706
:1050B800F4509823000E99231603F3509727F450C1
:1050C8009823000E99237D0E1803F3509827F45067
:1050D8009923000E1703F3509827F4509923000ED4
:1050E8001603F3509827F45099237D0E1903F350B3
:1050F8009927000E1803F3509927000E1703F35051
:105108009927000E1603F350992746D00101D35171
:10511800AFEC65F07D0E00011603F3CF96F0F4CFE7
:1051280097F0986B996B1703F3509727F4509823CF
:10513800000E99231603F3509727F4509823000E76
:1051480099237D0E1803F3509827F4509923000EE5
:105158001703F3509827F4509923000E1603F350C1
:105168009827F45099237D0E1903F3509927000EC0
:105178001803F3509927000E1703F3509927000ED0
:105188001603F35099270D0E05D0D890993398330C
:1051980097339633E82EF9D796C09FF097C0A0F0C2
:1051A80098C0A1F099C0A2F09F5120089A6F4E0EA6
:1051B800A0559B6F000EA1559C6F000EA2559D6FC8
:1051C8009AC08FF09BC090F096EF1DF00101D55169
:1051D8001AEC6EF08A96080E186E120E28EC6EF015
:1051E800C4C11BF0000E1C6E33EC3FF00101CF91DF
:1051F800CFB91200D351AFEC65F0195007E11F0E7B
:10520800165CAC0E1758DF0E185847E30101D3514E
:10521800AFEC65F00D0E05D0D89019321832173260
:105228001632E82EF9D77D0E00011603F3CF96F05B
:10523800F4CF97F0986B996B1703F3509727F450B6
:105248009823000E99231603F3509727F4509823B8
:10525800000E99237D0E1803F3509827F4509923D4
:10526800000E1703F3509827F4509923000E1603E5
:10527800F3509827F45099237D0E1903F35099277A
:10528800000E1803F3509927000E1703F3509927BF
:10529800000E1603F350992746D00101D351AFEC05
:1052A80065F07D0E00011603F3CF96F0F4CF97F06A
:1052B800986B996B1703F3509727F4509823000EB7
:1052C80099231603F3509727F4509823000E992337
:1052D8007D0E1803F3509827F4509923000E1703F6
:1052E800F3509827F4509923000E1603F35098278B
:1052F800F45099237D0E1903F3509927000E1803D3
:10530800F3509927000E1703F3509927000E160340
:10531800F35099270D0E05D0D890993398339733C9
:105328009633E82EF9D796C09EF097C09FF098C0A4
:10533800A0F099C0A1F09E5120089A6F4E0E9F557B
:105348009B6F000EA0559C6F000EA1559D6F9AC0D3
:105358008FF09BC090F096EF1DF00001756F020171
:10536800EC51EDEC70F0D6C26FF00001750521E14B
:1053780075C062F0760E636F0201E451F8EC3AF002
:10538800746F630E0201D625F66EF76AF70EF722E0
:10539800F86A000EF8220800F550E5EC70F00201FA
:1053A800E651D65D0A0F1D6F0D0E1D6535D01D6FB8
:1053B80033D0020106BD15D0D66B75C062F0760EEB
:1053C8000001636F400EF8EC3AF0746F0A0EE5ECDA
:1053D80070F00201E6510A081D6F070EF1EC70F03B
:1053E80019D0040ED66F75C062F0760E0001636F97
:1053F800080EF8EC3AF0746F080EE5EC70F0020154
:10540800E6510E081D6F0D0E1D6501D01D6F090EAA
:10541800F1EC70F00201067D6FC0D6F20001745104
:1054280060E1400E76611DD0765189EC47F016C0D8
:1054380070F017C071F018C072F019C073F0070E41
:10544800F1EC70F0710E0201D825F66EF76AF70ECE
:10545800F722F86A000EF8220800F550D9EC70F02F
:105468002ED07651D3EC44F016C070F017C071F00E
:1054780018C072F019C073F0090EF1EC70F0710EDB
:105488000201D825F66EF76AF70EF722F86A000EC1
:10549800F8220800F550800A650F0EE2710ED82533
:1054A800F66EF76AF70EF722F86A000EF82208007F
:1054B800F550D9EC70F003D01A0ED9EC70F070C02A
:1054C80016F071C017F072C018F073C019F00BEC29
:1054D80051F0010EE1EC70F0000EDDEC70F076C0DA
:1054E800D1F2000174511200010E0001DD6FD9C024
:1054F800D9FFDAC0DAFFDECF1CF0DDCF1DF096EC65
:1055080067F0000901E197D0000120EE02F0D951BF
:10551800D926DA51DA22DECF1CF0DDCF1DF096EC69
:1055280067F0000901E187D0D9C0D9FFDAC0DAFFF6
:10553800DECF1CF0DDCF1DF01E6A1F6A216A100E37
:10554800206EFFEC1FF01C50DE6F20EE02F0D951E8
:10555800D926DA51DA22DECF1CF0DDCF1DF01E6A23
:105568001F6A216A100E206EFFEC1FF01C50DF6FBF
:10557800D9C0D9FFDAC0DAFFDECFDBF0DDCFDCF04F
:10558800DBC016F0DCC017F016501710D8A4200E98
:10559800186ED3EC61F0020E161817104CE10001DA
:1055A800DE5111E14E0E166EFF0E176ED9C0D9FFEF
:1055B800DAC0DAFFDECF18F0DDCF19F09DEC39F054
:1055C8001650171038E1000120EE02F0D951D92603
:1055D800DA51DA22DECFDBF0DDCFDCF0DBC016F00B
:1055E800DCC017F016501710D8A4200E186ED3EC94
:1055F80061F0020E161817101EE10001DF5113E1C9
:105608004E0E166EFF0E176E20EE02F0D951D926F7
:10561800DA51DA22DECF18F0DDCF19F09DEC39F03F
:105628001650171008E1DFC018F00001DE5128EC11
:105638006EF00001DD6B0001DD51020DE30EF32475
:10564800D96E010EF420DA6EDECFDBF0DDCFDCF0B0
:1056580020EE06F0D951D926DA51DA22DBC0DEFF76
:10566800DCC0DEFFDD6A1200090EE126000EE22230
:105678004268436844684568F70E42C0E3FFF80E85
:1056880043C0E3FFF90E44C0E3FFFA0E45C0E3FF51
:1056980076EC33F0FB0E3AC0E3FFFC0E3BC0E3FFB1
:1056A800FD0E3CC0E3FFFE0E3DC0E3FFFF0EE36AC4
:1056B80081D0FF0EE350080D040EF324D96E040EBA
:1056C800F420DA6EDE0474E1FF0EE350080D000EDC
:1056D800F324D96E040EF420DA6EFB0EE3CF3AF011
:1056E800DE503A5CFC0EE3CF3AF0DE503A58FD0E3D
:1056F800E3CF3AF0DE503A58FE0EE3CF3AF0DE50F0
:105708003A580EE3FF0EE350080D000EF324D96E4D
:10571800040EF420DA6EDE6ADE6ADE6ADD6A48D0DC
:10572800FF0EE350080D000EF324D96E040EF4208A
:10573800DA6EFB0EE350DE5EFC0EE350DE5AFD0E21
:10574800E350DE5AFE0EE350DE5AFF0EE350080D1A
:10575800000EF324D96E040EF420DA6EF70EE3502F
:10576800DE5CF80EE350DE58F90EE350DE58FA0E10
:10577800E350DE581DE2FF0EE350080D000EF3243F
:10578800D96E040EF420DA6EDECF42F0DECF43F09D
:10579800DECF44F0DECF45F0F70E42C0E3FFF80E4F
:1057A80043C0E3FFF90E44C0E3FFFA0E45C0E3FF30
:1057B800FF0EE32AFF0EE3CF3AF031503A5C01E2E4
:1057C80078D7F70EE3CF3AF0F80EE3CF3BF0F90EB7
:1057D800E3CF3CF0FA0EE3CF3DF0F70EE126FF0EE3
:1057E800E222FF0C20EE01F01650D9261750DA22DB
:1057F800DF50186E20EE05F01650D9261750DA2221
:1058080000EE01F01650E9261750EA22DFCFEFFF2D
:1058180020EE09F01650D9261750DA2200EE05F0CE
:105828001650E9261750EA22DFCFEFFF20EE0DF0E1
:105838001650D9261750DA2200EE09F01650E9263C
:105848001750EA22DFCFEFFF20EE0DF01650D926D1
:105858001750DA2218C0DFFF20EE02F01650D926C2
:105868001750DA22DF50186E20EE0AF01650D926AB
:105878001750DA2200EE02F01650E9261750EA22F5
:10588800DFCFEFFF20EE0AF01650D9261750DA22A4
:1058980018C0DFFF20EE0EF01650D9261750DA2276
:1058A800DF50186E20EE06F01650D9261750DA226F
:1058B80000EE0EF01650E9261750EA22DFCFEFFF70
:1058C80020EE06F01650D9261750DA2218C0DFFF4E
:1058D80020EE03F01650D9261750DA22DF50186E42
:1058E80020EE0FF01650D9261750DA2200EE03F0FA
:1058F8001650E9261750EA22DFCFEFFF20EE0BF013
:105908001650D9261750DA2200EE0FF01650E92665
:105918001750EA22DFCFEFFF20EE07F01650D92606
:105928001750DA2200EE0BF01650E9261750EA223B
:10593800DFCFEFFF20EE07F01650D9261750DA22F6
:1059480018C0DFFF1200A36BA46B91390F0BA26F75
:10595800010EA36F53D093C020F094C021F095C0DE
:1059680022F096C023F0A3C024F0010E256E9CC03F
:1059780026F0925184EC45F0CF0E00017B6F030EA8
:105988007C6F97C07DF098C07EF064EC6AF00001EF
:10599800A46B99519A25D96E000E9B21DA6EA351FA
:1059A8009D6F9E6B9D3B9E3BF00E9E179D510F0B6E
:1059B8009E13F00E9D178FC09FF090C0A0F09D51D0
:1059C8009F279E51A023A4519F27000EA023F00ECD
:1059D8009F25E96EFF0EA021EA6EEF50A16FCF0E52
:1059E800A425E96EEA6A030EEA22EF50A119DF6ED8
:1059F800992BA42B0F0EA465CCD7A32BA351A25D82
:105A0800AAE291C09DF00F0E9D17D8B40F0C93C059
:105A180020F094C021F095C022F096C023F0A3C0D6
:105A280024F0010E256E9CC026F0925184EC45F0BE
:105A3800CF0E00017B6F030E7C6F97C07DF098C07E
:105A48007EF064EC6AF00001A46B23D099519A258A
:105A5800D96E000E9B21DA6EA251100D8FC09DF0F9
:105A680090C09EF0F3509D27F4509E23A4519D258D
:105A7800E96E000E9E21EA6EEF509F6FCF0EA425AF
:105A8800E96EEA6A030EEA22EF509F19DF6E992B3E
:105A9800A42B91C09DF00F0E9D179D51A45DD8B009
:105AA8001200D4D7D9C0D9FFDAC0DAFFDECFDDF0D3
:105AB800DDCFDEF0010E0001DF6FDDC07FF0DEC05C
:105AC80080F022EC3DF0E06FE0BF61D0270EE025CA
:105AD800F66EF76AF70EF722F86A000EF822080049
